{
  "transactions": [
    {
      "hash": "0xdb8a2f9348309c3274f98f98800f0918d7f21d75c554dba42d865cfc50053b88",
      "transactionType": "CALL",
      "contractName": null,
      "contractAddress": "0x046d8b9815ff1b3d9156651655173ba012afe66f",
      "function": "mintNft(string)",
      "arguments": [
        "\"https://ipfs.io/ipfs/bafybeig37ioir76s7mg5oobetncojcm3c3hxasyd4rvid4jqhy4gkaheg4/?filename=0-PUG.json\""
      ],
      "transaction": {
        "from": "0xec8e6b06c31cbfc078fa87d5dca574350f3dd4d1",
        "to": "0x046d8b9815ff1b3d9156651655173ba012afe66f",
        "gas": "0x396f1",
        "value": "0x0",
        "input": "0xda86f4a90000000000000000000000000000000000000000000000000000000000000020000000000000000000000000000000000000000000000000000000000000006568747470733a2f2f697066732e696f2f697066732f62616679626569673337696f6972373673376d67356f6f6265746e636f6a636d3363336878617379643472766964346a71687934676b61686567342f3f66696c656e616d653d302d5055472e6a736f6e000000000000000000000000000000000000000000000000000000",
        "nonce": "0x38",
        "chainId": "0xaa36a7"
      },
      "additionalContracts": [],
      "isFixedGasLimit": false
    }
  ],
  "receipts": [
    {
      "status": "0x1",
      "cumulativeGasUsed": "0x119ac71",
      "logs": [
        {
          "address": "0x046d8b9815ff1b3d9156651655173ba012afe66f",
          "topics": [
            "0xddf252ad1be2c89b69c2b068fc378daa952ba7f163c4a11628f55a4df523b3ef",
            "0x0000000000000000000000000000000000000000000000000000000000000000",
            "0x000000000000000000000000ec8e6b06c31cbfc078fa87d5dca574350f3dd4d1",
            "0x0000000000000000000000000000000000000000000000000000000000000002"
          ],
          "data": "0x",
          "blockHash": "0xb6f22ef7eeb6c6a8df0373727f2dd4c9d6b20f2ab7e17c0d2b1ce7b342a9c0aa",
          "blockNumber": "0x643f17",
          "transactionHash": "0xdb8a2f9348309c3274f98f98800f0918d7f21d75c554dba42d865cfc50053b88",
          "transactionIndex": "0x96",
          "logIndex": "0xd5",
          "removed": false
        }
      ],
      "logsBloom": "0x04000000000000000040000000000000000000000000000000000000000000000000000000000000000000000000000000000000000000000000000200000000000000000000000000000008000000000000000000000000000000000000000000000000020000200000000000000800000000000000000000000010000000000000000000000000000000000000000000000000000000000000000000000000100000000000000000000500000000000000000000000000000000000000000000000002000000000000000000000000000008000000000000000000000020000000000000000000000000000000000000000000008000000000000000000000",
      "type": "0x2",
      "transactionHash": "0xdb8a2f9348309c3274f98f98800f0918d7f21d75c554dba42d865cfc50053b88",
      "transactionIndex": "0x96",
      "blockHash": "0xb6f22ef7eeb6c6a8df0373727f2dd4c9d6b20f2ab7e17c0d2b1ce7b342a9c0aa",
      "blockNumber": "0x643f17",
      "gasUsed": "0x2994d",
      "effectiveGasPrice": "0x38e77fc",
      "from": "0xec8e6b06c31cbfc078fa87d5dca574350f3dd4d1",
      "to": "0x046d8b9815ff1b3d9156651655173ba012afe66f",
      "contractAddress": null
    }
  ],
  "libraries": [],
  "pending": [],
  "returns": {},
  "timestamp": 1724605848,
  "chain": 11155111,
  "commit": "6ec6265"
}