{
  "transactions": [
    {
      "hash": "0x9fa34bf68ec7bff4fa260d8c6992fdbca1f1db36af67db5a4f017d13d998330e",
      "transactionType": "CALL",
      "contractName": null,
      "contractAddress": "0x046d8b9815ff1b3d9156651655173ba012afe66f",
      "function": "mintNft(string)",
      "arguments": [
        "\"ipfs://bafybeig37ioir76s7mg5oobetncojcm3c3hxasyd4rvid4jqhy4gkaheg4/?filename=0-PUG.json\""
      ],
      "transaction": {
        "from": "0xec8e6b06c31cbfc078fa87d5dca574350f3dd4d1",
        "to": "0x046d8b9815ff1b3d9156651655173ba012afe66f",
        "gas": "0x3d623",
        "value": "0x0",
        "input": "0xda86f4a900000000000000000000000000000000000000000000000000000000000000200000000000000000000000000000000000000000000000000000000000000057697066733a2f2f62616679626569673337696f6972373673376d67356f6f6265746e636f6a636d3363336878617379643472766964346a71687934676b61686567342f3f66696c656e616d653d302d5055472e6a736f6e000000000000000000",
        "nonce": "0x36",
        "chainId": "0xaa36a7"
      },
      "additionalContracts": [],
      "isFixedGasLimit": false
    }
  ],
  "receipts": [
    {
      "status": "0x1",
      "cumulativeGasUsed": "0x112ce92",
      "logs": [
        {
          "address": "0x046d8b9815ff1b3d9156651655173ba012afe66f",
          "topics": [
            "0xddf252ad1be2c89b69c2b068fc378daa952ba7f163c4a11628f55a4df523b3ef",
            "0x0000000000000000000000000000000000000000000000000000000000000000",
            "0x000000000000000000000000ec8e6b06c31cbfc078fa87d5dca574350f3dd4d1",
            "0x0000000000000000000000000000000000000000000000000000000000000000"
          ],
          "data": "0x",
          "blockHash": "0x83814e2cb80d89fa7b1d426f9676acf98261cea07772a850b6e96158eed7ea02",
          "blockNumber": "0x643ea1",
          "transactionHash": "0x9fa34bf68ec7bff4fa260d8c6992fdbca1f1db36af67db5a4f017d13d998330e",
          "transactionIndex": "0x7b",
          "logIndex": "0xdc",
          "removed": false
        }
      ],
      "logsBloom": "0x00000000000000000040000000000000000000000000000000000000000000000000000000000000000000000000000000000000000000000000000200000000000000000000000000000008000000000000000000000000000000000000000000000000020000200000000000000800000000000000000000000010000000000000000000000000000000000000000000000000000000000000000000000000100000000000000000000400000000000000000000000000000000000000000000000002000000000000000000000000000008000000000000000000000020000000000000000000000000000000000000000000000000000000000000000000",
      "type": "0x2",
      "transactionHash": "0x9fa34bf68ec7bff4fa260d8c6992fdbca1f1db36af67db5a4f017d13d998330e",
      "transactionIndex": "0x7b",
      "blockHash": "0x83814e2cb80d89fa7b1d426f9676acf98261cea07772a850b6e96158eed7ea02",
      "blockNumber": "0x643ea1",
      "gasUsed": "0x2c70e",
      "effectiveGasPrice": "0x443aa4c",
      "from": "0xec8e6b06c31cbfc078fa87d5dca574350f3dd4d1",
      "to": "0x046d8b9815ff1b3d9156651655173ba012afe66f",
      "contractAddress": null
    }
  ],
  "libraries": [],
  "pending": [],
  "returns": {},
  "timestamp": 1724604318,
  "chain": 11155111,
  "commit": "6ec6265"
}