{
  "transactions": [
    {
      "hash": "0x86876002f31d9367eda8a1e0b544d8bc1853a8d964e7bc689163abe5320b61e7",
      "transactionType": "CALL",
      "contractName": null,
      "contractAddress": "0x046d8b9815ff1b3d9156651655173ba012afe66f",
      "function": "mintNft(string)",
      "arguments": [
        "\"http://127.0.0.1:8080/ipfs/bafybeig37ioir76s7mg5oobetncojcm3c3hxasyd4rvid4jqhy4gkaheg4/?filename=0-PUG.json\""
      ],
      "transaction": {
        "from": "0xec8e6b06c31cbfc078fa87d5dca574350f3dd4d1",
        "to": "0x046d8b9815ff1b3d9156651655173ba012afe66f",
        "gas": "0x39755",
        "value": "0x0",
        "input": "0xda86f4a90000000000000000000000000000000000000000000000000000000000000020000000000000000000000000000000000000000000000000000000000000006b687474703a2f2f3132372e302e302e313a383038302f697066732f62616679626569673337696f6972373673376d67356f6f6265746e636f6a636d3363336878617379643472766964346a71687934676b61686567342f3f66696c656e616d653d302d5055472e6a736f6e000000000000000000000000000000000000000000",
        "nonce": "0x37",
        "chainId": "0xaa36a7"
      },
      "additionalContracts": [],
      "isFixedGasLimit": false
    }
  ],
  "receipts": [
    {
      "status": "0x1",
      "cumulativeGasUsed": "0xb677c2",
      "logs": [
        {
          "address": "0x046d8b9815ff1b3d9156651655173ba012afe66f",
          "topics": [
            "0xddf252ad1be2c89b69c2b068fc378daa952ba7f163c4a11628f55a4df523b3ef",
            "0x0000000000000000000000000000000000000000000000000000000000000000",
            "0x000000000000000000000000ec8e6b06c31cbfc078fa87d5dca574350f3dd4d1",
            "0x0000000000000000000000000000000000000000000000000000000000000001"
          ],
          "data": "0x",
          "blockHash": "0x9d73facdb3d9129905ab1489c2fcc8e7526480cc22666a82f49913a5fed3ca70",
          "blockNumber": "0x643ecc",
          "transactionHash": "0x86876002f31d9367eda8a1e0b544d8bc1853a8d964e7bc689163abe5320b61e7",
          "transactionIndex": "0x3a",
          "logIndex": "0x74",
          "removed": false
        }
      ],
      "logsBloom": "0x00000000000000000040000000000000000000000000000000000000000000000000000000000000000000000000000000000000000000000000000200040000000000000000000000000008000000000000000000040000000000000000000000000000020000200000000000000800000000000000000000000010000000000000000000000000000000000000000000000000000000000000000000000000100000000000000000000400000000000000000000000000000000000000000000000002000000000000000000000000000008000000000000000000000060000000000000000000000000000000000000000000000000000000000000000000",
      "type": "0x2",
      "transactionHash": "0x86876002f31d9367eda8a1e0b544d8bc1853a8d964e7bc689163abe5320b61e7",
      "transactionIndex": "0x3a",
      "blockHash": "0x9d73facdb3d9129905ab1489c2fcc8e7526480cc22666a82f49913a5fed3ca70",
      "blockNumber": "0x643ecc",
      "gasUsed": "0x29995",
      "effectiveGasPrice": "0x549bfa2",
      "from": "0xec8e6b06c31cbfc078fa87d5dca574350f3dd4d1",
      "to": "0x046d8b9815ff1b3d9156651655173ba012afe66f",
      "contractAddress": null
    }
  ],
  "libraries": [],
  "pending": [],
  "returns": {},
  "timestamp": 1724604890,
  "chain": 11155111,
  "commit": "6ec6265"
}