{
  "transactions": [
    {
      "hash": "0x1b723e8e45920b14b09118c74b70c4f9897e4aef028df2f82a6b655cebb810d7",
      "transactionType": "CALL",
      "contractName": null,
      "contractAddress": "0x046d8b9815ff1b3d9156651655173ba012afe66f",
      "function": "mintNft(string)",
      "arguments": [
        "\"https://ipfs.io/ipfs/bafybeig37ioir76s7mg5oobetncojcm3c3hxasyd4rvid4jqhy4gkaheg4\""
      ],
      "transaction": {
        "from": "0xec8e6b06c31cbfc078fa87d5dca574350f3dd4d1",
        "to": "0x046d8b9815ff1b3d9156651655173ba012afe66f",
        "gas": "0x34c0e",
        "value": "0x0",
        "input": "0xda86f4a90000000000000000000000000000000000000000000000000000000000000020000000000000000000000000000000000000000000000000000000000000005068747470733a2f2f697066732e696f2f697066732f62616679626569673337696f6972373673376d67356f6f6265746e636f6a636d3363336878617379643472766964346a71687934676b616865673400000000000000000000000000000000",
        "nonce": "0x39",
        "chainId": "0xaa36a7"
      },
      "additionalContracts": [],
      "isFixedGasLimit": false
    }
  ],
  "receipts": [
    {
      "status": "0x1",
      "cumulativeGasUsed": "0xaff6e2",
      "logs": [
        {
          "address": "0x046d8b9815ff1b3d9156651655173ba012afe66f",
          "topics": [
            "0xddf252ad1be2c89b69c2b068fc378daa952ba7f163c4a11628f55a4df523b3ef",
            "0x0000000000000000000000000000000000000000000000000000000000000000",
            "0x000000000000000000000000ec8e6b06c31cbfc078fa87d5dca574350f3dd4d1",
            "0x0000000000000000000000000000000000000000000000000000000000000003"
          ],
          "data": "0x",
          "blockHash": "0xce9b7047cd85c05cd88954be8ade755fb0941e5239110c8439d3984cc7166651",
          "blockNumber": "0x643f23",
          "transactionHash": "0x1b723e8e45920b14b09118c74b70c4f9897e4aef028df2f82a6b655cebb810d7",
          "transactionIndex": "0x47",
          "logIndex": "0x6f",
          "removed": false
        }
      ],
      "logsBloom": "0x00000000000000000040000000000000000000000000000000000000000000000000000000000000000000000000000000000000020000000000000200000000000000000000000000000008000000000000000000000000000000000000000000000000020000200000000000000800000000000000000000000010000000000000000000000000000000000000000000000000000000000000000000000000100000000000000000000400000000000000000000800000000000000000400000000002000000000000000000000000000008000000000000000000000020000000000000000000000000000000000000000000000000000000000000000000",
      "type": "0x2",
      "transactionHash": "0x1b723e8e45920b14b09118c74b70c4f9897e4aef028df2f82a6b655cebb810d7",
      "transactionIndex": "0x47",
      "blockHash": "0xce9b7047cd85c05cd88954be8ade755fb0941e5239110c8439d3984cc7166651",
      "blockNumber": "0x643f23",
      "gasUsed": "0x24122",
      "effectiveGasPrice": "0x34de8b1",
      "from": "0xec8e6b06c31cbfc078fa87d5dca574350f3dd4d1",
      "to": "0x046d8b9815ff1b3d9156651655173ba012afe66f",
      "contractAddress": null
    }
  ],
  "libraries": [],
  "pending": [],
  "returns": {},
  "timestamp": 1724606010,
  "chain": 11155111,
  "commit": "6ec6265"
}