{
  "transactions": [
    {
      "hash": "0x8d80a668050c605986d88034786a466606771bfdbc56682fb60181dbafe62a18",
      "transactionType": "CALL",
      "contractName": null,
      "contractAddress": "0x46972548a96b6d2cafe57887386e9d654efc8f9f",
      "function": "mintNft(string)",
      "arguments": [
        "\"ipfs://bafybeig37ioir76s7mg5oobetncojcm3c3hxasyd4rvid4jqhy4gkaheg4/?filename=0-PUG.json\""
      ],
      "transaction": {
        "from": "0xec8e6b06c31cbfc078fa87d5dca574350f3dd4d1",
        "to": "0x46972548a96b6d2cafe57887386e9d654efc8f9f",
        "gas": "0x3d623",
        "value": "0x0",
        "input": "0xda86f4a900000000000000000000000000000000000000000000000000000000000000200000000000000000000000000000000000000000000000000000000000000057697066733a2f2f62616679626569673337696f6972373673376d67356f6f6265746e636f6a636d3363336878617379643472766964346a71687934676b61686567342f3f66696c656e616d653d302d5055472e6a736f6e000000000000000000",
        "nonce": "0x3b",
        "chainId": "0xaa36a7"
      },
      "additionalContracts": [],
      "isFixedGasLimit": false
    }
  ],
  "receipts": [
    {
      "status": "0x1",
      "cumulativeGasUsed": "0x75187d",
      "logs": [
        {
          "address": "0x46972548a96b6d2cafe57887386e9d654efc8f9f",
          "topics": [
            "0xddf252ad1be2c89b69c2b068fc378daa952ba7f163c4a11628f55a4df523b3ef",
            "0x0000000000000000000000000000000000000000000000000000000000000000",
            "0x000000000000000000000000ec8e6b06c31cbfc078fa87d5dca574350f3dd4d1",
            "0x0000000000000000000000000000000000000000000000000000000000000000"
          ],
          "data": "0x",
          "blockHash": "0x6edaff7ab27b833397879f06a716ebb0358fb1883bcca1744b5f2e81d2f3b3ea",
          "blockNumber": "0x643f6b",
          "transactionHash": "0x8d80a668050c605986d88034786a466606771bfdbc56682fb60181dbafe62a18",
          "transactionIndex": "0x3a",
          "logIndex": "0x56",
          "removed": false
        }
      ],
      "logsBloom": "0x00000000000000000040000000000400000000000000000000000000000000000000000000000000000000000000000000000000000000000000000000010000000000000000000000000008000000000000000000000000000000000000000000000000020000200000000000000800000000000000000000000010000000000000000008000000000000000000000000000000000000000000000000000000100000000000000000000000000000000000000000000000000000000000000000000002000000000000000000000000000000000000000000000000000020000000000000000000000000000000000000000000000000000000000000000000",
      "type": "0x2",
      "transactionHash": "0x8d80a668050c605986d88034786a466606771bfdbc56682fb60181dbafe62a18",
      "transactionIndex": "0x3a",
      "blockHash": "0x6edaff7ab27b833397879f06a716ebb0358fb1883bcca1744b5f2e81d2f3b3ea",
      "blockNumber": "0x643f6b",
      "gasUsed": "0x2c70e",
      "effectiveGasPrice": "0x34903ce",
      "from": "0xec8e6b06c31cbfc078fa87d5dca574350f3dd4d1",
      "to": "0x46972548a96b6d2cafe57887386e9d654efc8f9f",
      "contractAddress": null
    }
  ],
  "libraries": [],
  "pending": [],
  "returns": {},
  "timestamp": 1724606988,
  "chain": 11155111,
  "commit": "6ec6265"
}